:100000000C9460300C9491300C9491300C9491309D
:100010000C9491300C9443F60C9491300C949130E4
:100020000C94D4F90C9491300C94EF880C9491308A
:100030000C9491300D94D13C0C9491300C949130EF
:100040000C9491300C94DEB40C9491300C9491305B
:100050000C9491300C9491300D94FE330D94C08A21
:100060000C9491300C9405B10C9491300C94913017
:100070000C9491300C9491300C9491300C949130FC
:100080000C9491300C9491300C9491300C949130EC
:100090000C94C1B00C9491300C9491300C9491302C
:1000A0000C9491300C9491300C9491300C949130CC
:1000B0000C9491300C9491300C9491300C949130BC
:1000C0000C9491300C9491300C9491300C94B4A514
:1000D0000C9491300C9491300C9491300C9491309C
:1000E0000C949130918795879B87A487BD87DA8789
:1000F00017884E88DDCAF3CA06CB13CB1DCB4BCB7A
:100100006CCB72CB80CB83CB85CB8FCBA0CBB1CB51
:1001100040018A01A4013A01AE0132017C0144018F
:1001200092012C0174013C0170013001860196019D
:100130005001A8017A012601780172015C016C016D
:10014000BA0150016E019A016201AC014E01380101
:1001500068014A0136018E019C0148015E012E01B1
:10016000B201940142013601460176018001084A3C
:10017000D73B3BCE016E84BCBFFDC12F3D6C7431BB
:100180009ABD56833DDA3D00C77F11BED9E4BB4C12
:100190003E916BAAAABE000000803F05A84CCDB2DC
:1001A000D44EB93836A9020C50B9918688083CA6BD
:1001B000AAAA2ABE000000803F07634236B79BD838
:1001C000A71A39685618AEBAAB558C1D3CB7CC5738
:1001D00063BD6DEDFD753EF6177231BF0000008006
:1001E0003F08000000BE922449123EABAAAA2ABED4
:1001F000CDCCCC4C3E00000080BEABAAAAAA3E00EB
:10020000000000BF000000803F0000000000084127
:1002100078D3BB4387D1133D190E3CC3BD4282AD99
:100220002B3E68EC8276BED98FE1A93E4C80EFFF71
:10023000BE01C4FF7F3F0000000000000D94D80BFA
:100240000D941A8D0D94C5050D94933B0D94028663
:100250000D94E08C0D943A8D0D94BB440D949588CB
:100260000D94E3850D948B440D94E4A80D94E088DF
:100270000D9453880D9469440D94F1850D94C38CAD
:100280000D9443440D94B8880D949F440D94C288F6
:100290000D9481880D9467880D9468050D944E889F
:1002A0000D942B860D94388B0D94F7050D940C3C12
:1002B0000D942E070D9489050D9410860D948B884E
:1002C0000D94883B0D9426860D94843B0D941A3C26
:1002D0000D945D880D94C68B0D9414860D941E8626
:1002E0000D94F4850D940A860D94D2440D94CC8817
:1002F0000D9406860D94FC850D9491440D94290669
:100300000D94D6880D94898C0D940A8B0D94E785F5
:100310000D94529E0D9451440D947B8B0D947188D5
:100320000D94A68C0D94AD440D94AE880D94ED857E
:100330000D9452240D9422860D9479880D944E8C40
:100340000D949D0B0D948E3B0D9457440D946C8C25
:100350000D94F8850D94FD8C0D9449880D94854479
:100360000D942C050D949F880D9438410D94F9231C
:100370000D94298D0D9418860D944C066E616E00B7
:10038000696E66004E414E494E495459494E46CD1C
:10039000CCCC3D0AD7233C17B7D13877CC2B32953C
:1003A00095E6241FB14F0A000020410000C842001A
:1003B000401C4620BCBE4CCA1B0E5AAEC59D7400E4
:1003C000407A10F35A00A0724E18090010A5D4E824
:1003D0000000E87648170000E40B54020000CA9AB7
:1003E0003B000000E1F50500008096980000004009
:1003F000420F000000A0860100000010270000004E
:1004000000E803000000006400000000000A000093
:100410000000000100000000002C76D888DC674F47
:100420000823DFC1DFAE59E1B1B796E5E3E453C677
:100430003AE651997696E8E6C28426EB898C9B626F
:10044000ED407C6FFCEFBC9C9F40F2BAA56FA5F419
:1004500090055A2AF75C936B6CF9676DC11BFCE041
:10046000E40D47FEF520E6B500D0ED902E03009494
:100470003577050080841E080000204E0A00000029
:10048000C80C333333330F986E12831141EF8D2133
:1004900014893BE65516CFFEE6DB18D1844B381B9A
:1004A000F77C1D901DA4BBE424203284725E22815F
:1004B00000C9F124ECA1E53D27256420627974652B
:1004C00073207772697474656E20746F204545508F
:1004D000524F4D20617420616464726573732030E3
:1004E0007825303478004433202D20526561642F04
:1004F000577269746520454550524F4D0A00746D1E
:1005000063323133305F7072696E745F637572721B
:10051000656E747328290A094809520A5809256426
:100520000925640A590925640925640A5A092564BC
:100530000925640A450925640925640A0020436FDA
:10054000756E7420583A20005344207072696E749E
:10055000696E67206279746520004E6F7420696E41
:10056000206661726D206D6F64652E004163746951
:1005700076652045787472756465723A2000496E1C
:1005800076616C6964206578747275646572007454
:100590006D63323133305F73675F7468725B2563FC
:1005A0005D3D25640A005A204F66667365740055E8
:1005B0006E6B6E6F776E20636F6D6D616E643A2047
:1005C00022007A5F6D61783A20007A5F6D696E3A39
:1005D0002000795F6D61783A2000795F6D696E3A2D
:1005E0002000785F6D61783A20006F70656E00784A
:1005F0005F6D696E3A20005265706F7274696E6744
:1006000020656E6473746F70207374617475730009
:100610000053494C454E54004E4F524D414C00251D
:1006200053204D4F44453A2050657263656E7420E7
:10063000646F6E653A2025643B207072696E742089
:1006400074696D652072656D61696E696E67206998
:100650006E206D696E733A2025640A00456E642031
:1006600066696C65206C69737400426567696E2009
:1006700066696C65206C6973740025643A20256492
:100680000A000A50494E44412074656D70657261DC
:10069000747572653A20252E3166205A2073686978
:1006A000667420286D6D293A20252E3366000A5382
:1006B0007465703A2025642F360A000A53746570F9
:1006C0003A2025642F362028736B69707065642981
:1006D0000A50494E44412074656D706572617475AD
:1006E00072653A202564205A207368696674202850
:1006F0006D6D293A300A000A5A45524F3A20252E8C
:1007000033660A0073746172742074656D7065726B
:1007100061747572653A20252E31660A00256420C1
:1007200020252E326600255320583A20252E356686
:1007300020593A20252E3566205A3A20252E356636
:100740000A004E6F7420696E206661726D206D6FB5
:1007500064652E0025640045303A25642052504DD2
:100760000A50524E303A25642052504D0A002564FA
:10077000004175746F0020452F443D00416476614F
:100780006E6365204B3D004D3232302053256900A9
:10079000255346696C616D656E7420736574746968
:1007A0006E67733A2044697361626C65640A002560
:1007B0005346696C616D656E742073657474696EFF
:1007C00067733A0A25532020204D323030204425CB
:1007D0002E32660A002553526574726163743A20A2
:1007E000533D4C656E67746820286D6D2920463A2C
:1007F000537065656420286D6D2F6D29205A3A204D
:100800005A4C69667420286D6D290A2553202020D2
:100810004D3230372053252E32662046252E326643
:10082000205A252E32660A25535265636F7665720B
:100830003A20533D4578747261206C656E67746828
:1008400020286D6D2920463A537065656420286D17
:100850006D2F6D290A25532020204D32303820532A
:10086000252E32662046252E32660A2553417574A0
:100870006F2D526574726163743A20533D30207459
:100880006F2064697361626C652C203120746F2065
:10089000696E7465727072657420657874727564BF
:1008A000652D6F6E6C79206D6F7665732061732096
:1008B0007265747261637473206F72207265636F06
:1008C0007665726965730A25532020204D323039D0
:1008D000205325640A0025535049442068656174FB
:1008E0006265642073657474696E67733A0A255390
:1008F0002020204D3330342050252E3266204925CB
:100900002E32662044252E32660A00255350494473
:100910002073657474696E67733A0A25532020202A
:100920004D3330312050252E32662049252E326637
:100930002044252E32660A002553537465707320B7
:1009400070657220756E69743A0A255320204D39FE
:10095000322058252E32662059252E3266205A25FF
:100960002E32662045252E32660A25534D61786960
:100970006D756D20666565647261746573202D20E8
:100980006E6F726D616C20286D6D2F73293A0A2588
:100990005320204D3230332058252E3266205925E1
:1009A0002E3266205A252E32662045252E32660AC2
:1009B00025534D6178696D756D206665656472615A
:1009C000746573202D20737465616C746820286DC4
:1009D0006D2F73293A0A255320204D323033205889
:1009E000252E32662059252E3266205A252E326653
:1009F0002045252E32660A25534D6178696D756D47
:100A000020616363656C65726174696F6E202D206F
:100A10006E6F726D616C20286D6D2F7332293A0AEA
:100A2000255320204D3230312058256C7520592512
:100A30006C75205A256C752045256C750A25534D1B
:100A40006178696D756D20616363656C6572617451
:100A5000696F6E202D20737465616C746820286D39
:100A60006D2F7332293A0A255320204D3230312020
:100A700058256C752059256C75205A256C752045B4
:100A8000256C750A2553416363656C6572617469F1
:100A90006F6E3A20533D616363656C657261746982
:100AA0006F6E2C20543D72657472616374206163B3
:100AB00063656C65726174696F6E0A255320204D01
:100AC0003230342053252E32662054252E32660AC9
:100AD0002553416476616E63656420766172696155
:100AE000626C65733A20533D4D696E20666565649E
:100AF0007261746520286D6D2F73292C20543D4D33
:100B0000696E2074726176656C20666565647261D9
:100B1000746520286D6D2F73292C20423D6D696E00
:100B2000696D756D207365676D656E742074696D90
:100B30006520286D73292C20583D6D6178696D758D
:100B40006D205859206A65726B20286D6D2F7329AE
:100B50002C20205A3D6D6178696D756D205A206A90
:100B600065726B20286D6D2F73292C2020453D6DFB
:100B70006178696D756D2045206A65726B20286DFE
:100B80006D2F73290A255320204D323035205325EF
:100B90002E32662054252E32662042252E326620C3
:100BA00058252E32662059252E3266205A252E329F
:100BB000662045252E32660A2553486F6D65206FE5
:100BC000666673657420286D6D293A0A25532020C6
:100BD0004D3230362058252E32662059252E326669
:100BE000205A252E32660A004D4D55203C3D2027C7
:100BF000462564202564270A005049442041757425
:100C00006F74756E652066696E697368656421200E
:100C100050757420746865206C617374204B702C5F
:100C2000204B6920616E64204B6420636F6E737487
:100C3000616E74732066726F6D2061626F766520DD
:100C4000696E746F20436F6E66696775726174694F
:100C50006F6E2E6800504944204175746F74756E34
:100C600065206661696C6564212074696D656F75C6
:100C7000740020403A00543A00423A00504944205F
:100C80004175746F74756E65206661696C65642169
:100C90002054656D706572617475726520746F6F34
:100CA000206869676800204B643A2000204B693A4D
:100CB0002000204B703A200020436C6173736963FD
:100CC0002050494420002054753A2000204B753AAA
:100CD0002000206D61783A2000206D696E3A200076
:100CE00020643A200020626961733A200020453A6E
:100CF00000205A3A0020593A0020453A00205A3A3A
:100D00000020593A00583A00005A30005A31005930
:100D10003000593100583000583100456E6420735E
:100D2000746F70732064696167002E0044656C65A0
:100D300074696F6E206661696C65642C2046696C0D
:100D4000653A200046696C652064656C657465646D
:100D50003A004E6F74205344207072696E74696E4D
:100D600067005072696E7420736176656400534445
:100D7000207072696E7420706175736564000A007A
:100D80002F000A002F2F20616374696F6E3A636130
:100D90006E63656C0043524153485F43414E434587
:100DA0004C0043524153485F5245434F5645520011
:100DB00043524153485F5245434F56455200222803
:100DC0003229005400496E76616C696420542063B6
:100DD0006F64652E00556E6B6E6F776E204D2063CD
:100DE0006F64653A202573200A006E6F2076616C6F
:100DF000696420636F6D6D616E64002C20002C208F
:100E0000002C20006E2F61002C20002C20002C20B4
:100E1000006E2F61002F00503A0057616974206600
:100E20006F722050494E444120746172676574208E
:100E300074656D70657261747572653A004C414EEF
:100E4000472053454C20464F524345440022283109
:100E5000290030303030303030302D303030302DCF
:100E6000303030302D303030302D30303030303088
:100E70003030303030300020555549443A00310090
:100E80002045585452554445525F434F554E543AAD
:100E9000005072757361206933204D4B3300204D33
:100EA000414348494E455F545950453A00312E3030
:100EB00000206261736564206F6E204D61726C6901
:100EC0006E204649524D574152455F55524C3A6843
:100ED000747470733A2F2F6769746875622E636F2C
:100EE0006D2F707275736133642F50727573612D3D
:100EF0004669726D776172652050524F544F434F6F
:100F00004C5F56455253494F4E3A004649524D5751
:100F10004152455F4E414D453A50727573612D46C1
:100F200069726D7761726520004D31313320530055
:100F300020423A0020453A00543A0020413A00202D
:100F4000503A002042403A0020403A00202F003A18
:100F500000205400202F0020423A00202F006F6B09
:100F600020543A002569206D696E2C202569207374
:100F7000656300496E76616C6964204D20636F641F
:100F8000653A202573200A00556E6B6E6F776E20D0
:100F90004720636F64653A202573200A004D65730E
:100FA0006820626564206C6576656C696E67206E8A
:100FB0006F74206163746976652E000A002020003A
:100FC0000A4D6561737572656420706F696E747324
:100FD0003A000A5A20736561726368206865696720
:100FE00068743A20002C004E756D20582C593A2018
:100FF00000206D6963726F6E73004578636573736B
:1010000069766520626564206C6576656C696E67DB
:1010100020636F7272656374696F6E3A20004732A5
:10102000382057300050494E44412070726F62653D
:101030002063616C6962726174696F6E20737461A0
:10104000727400473238205730004D323400534517
:10105000545F43484F505F005345545F53544550CD
:101060005F005345545F574156455F00544D435F01
:101070000043524153485F005072657373206B6E9A
:101080006F6220746F2070726568656174206E6F86
:101090007A7A6C6520616E6420636F6E74696E7518
:1010A000652E00506C6561736520707265737320E6
:1010B000746865206B6E6F6220746F20756E6C6F44
:1010C00061642066696C616D656E740052656D6F58
:1010D0007665206F6C642066696C616D656E742046
:1010E000616E6420707265737320746865206B6E26
:1010F0006F6220746F207374617274206C6F61640E
:10110000696E67206E65772066696C616D656E74C7
:101110002E00616E642070726573732074686520A0
:101120006B6E6F6200496E736572742066696C61E4
:101130006D656E7400436F6C6F72206E6F74206308
:101140006F72726563740046696C616D656E7420C0
:101150006E6F74206C6F61646564004368616E67D4
:10116000656420636F72726563746C793F004C6FC5
:101170006164696E6720636F6C6F72004368616EB3
:10118000676520737563636573732100506C6561D7
:101190007365206F70656E2069646C657220616E86
:1011A000642072656D6F76652066696C616D656E31
:1011B00074206D616E75616C6C792E0057617320BF
:1011C00066696C616D656E7420756E6C6F6164200C
:1011D0007375636365737366756C3F00506C65610E
:1011E000736520757067726164652E004E657720A7
:1011F0006669726D776172652076657273696F6E6C
:1012000020617661696C61626C653A00576169744E
:10121000696E6720666F722050494E44412070729B
:101220006F626520636F6F6C696E670043726173F4
:10123000682064657465637465642E2052657375F7
:101240006D65207072696E743F004372617368202F
:1012500064657465637465642E00457874727564A2
:1012600065720043686F6F7365206578747275648A
:1012700065723A0043686F6F73652066696C616DD3
:10128000656E743A004D32303020496E76616C697B
:101290006420657874727564657220004E6F206DED
:1012A0006F76652E005761697420666F72207573C2
:1012B00065722E2E2E00536F6D652070726F626CFA
:1012C000656D20656E636F756E74657265642C2044
:1012D0005A2D6C6576656C6C696E6720656E666FFD
:1012E00072636564202E2E2E00537461626C65203B
:1012F000616D6269656E742074656D70657261748C
:101300007572652032312D323643206973206E6547
:101310006564656420612072696769642073746123
:101320006E642069732072657175697265642E0040
:10133000506C656173652072756E2058595A206330
:10134000616C6962726174696F6E20666972737430
:101350002E00536C6565702E2E2E007374617274AE
:101360000A006164635F696E69740A001B5B324A3C
:101370001B5B313B31484F726967696E616C20506D
:10138000727573612069331B5B323B334850727551
:1013900073612052657365617263680046616374AE
:1013A0006F727920524553455400446563203135AE
:1013B000203230313800436F6D70696C65643A20BB
:1013C00000286E6F6E652C2064656661756C7420F4
:1013D000636F6E666967290044656320313520328A
:1013E0003031382031323A30303A35380020352E1D
:1013F000302E342D545A422D323332370A002055C4
:10140000706C6F616420696E2070726F67726573B3
:101410007300205A3A0020593A0020583A004352AB
:101420004153485F4445544543544544585900434B
:10143000524153485F444554454354454459004341
:10144000524153485F444554454354454458004D28
:101450003239005072757361206933204D4B33204F
:1014600072656164792E00426C61636B6F757420E4
:101470006F636375727265642E205265636F766563
:1014800072207072696E743F0053656C6674657388
:10149000742077696C6C2062652072756E20746FA1
:1014A0002063616C69627261746520616363757247
:1014B0006174652073656E736F726C6573732072EF
:1014C00065686F6D696E672E005468657265206986
:1014D00073207374696C6C2061206E656564207480
:1014E0006F206D616B65205A2063616C6962726167
:1014F00074696F6E2E20506C6561736520666F6C29
:101500006C6F7720746865206D616E75616C2C203E
:1015100063686170746572204669727374207374B5
:101520006570732C2073656374696F6E2043616C02
:101530006962726174696F6E20666C6F772E0050FD
:1015400072696E74657220686173206E6F742062B8
:1015500065656E2063616C6962726174656420798F
:1015600065742E20506C6561736520666F6C6C6FBE
:101570007720746865206D616E75616C2C206368DE
:10158000617074657220466972737420737465703B
:10159000732C2073656374696F6E2043616C69629C
:1015A000726174696F6E20666C6F772E004F6C6489
:1015B0002073657474696E677320666F756E642E30
:1015C0002044656661756C74205049442C20457335
:1015D00074657073206574632E2077696C6C20626B
:1015E00065207365742E005761726E696E673A20CC
:1015F000626F7468207072696E746572207479709D
:101600006520616E64206D6F74686572626F6172CF
:10161000642074797065206368616E6765642E006C
:101620005761726E696E673A207072696E74657286
:101630002074797065206368616E6765642E005759
:1016400061726E696E673A206D6F74686572626F61
:101650006172642074797065206368616E67656487
:101660002E002020506C616E6E6572427566666554
:101670007242797465733A20002046726565204D88
:10168000656D6F72793A2000204C6173742055703B
:1016900064617465643A200045787465726E616CAB
:1016A0002053504920666C61736820573235583298
:1016B00030434C206E6F7420726573706F6E646976
:1016C0006E672E00437261736844657465637420AD
:1016D00044495341424C4544004372617368446538
:1016E0007465637420454E41424C45442100207C82
:1016F00020417574686F723A200020536F667477CA
:101700006172652052657365740020576174636867
:10171000646F67205265736574002042726F776E44
:10172000206F757420526573657400204578746568
:10173000726E616C20526573657400506F776572CC
:101740005570006572726F722077726974696E6786
:1017500020746F2066696C6500656E6473746F70C9
:1017600073206869743A2000446F6E652073617657
:10177000696E672066696C652E006F6B0058595A58
:101780002063616C6962726174696F6E20616C6C58
:101790002072696768742E20536B65772077696CB7
:1017A0006C20626520636F7272656374656420618A
:1017B00075746F6D61746963616C6C792E00585932
:1017C0005A2063616C6962726174696F6E20616C2A
:1017D0006C2072696768742E20582F5920617865D3
:1017E000732061726520736C696768746C7920730B
:1017F0006B657765642E20476F6F64206A6F622186
:101800000058595A2063616C6962726174696F6E25
:10181000206F6B2E20582F592061786573206172DC
:10182000652070657270656E646963756C61722E97
:1018300020436F6E67726174756C6174696F6E734B
:10184000210058595A2063616C6962726174696F32
:101850006E206661696C65642E2052696768742029
:1018600066726F6E742063616C6962726174696F15
:101870006E20706F696E74206E6F74207265616384
:101880006861626C652E0058595A2063616C696208
:10189000726174696F6E206661696C65642E2046A2
:1018A000726F6E742063616C6962726174696F6ECD
:1018B00020706F696E7473206E6F7420726561633F
:1018C0006861626C652E0058595A2063616C6962C8
:1018D000726174696F6E206661696C65642E205058
:1018E0006C6561736520636F6E73756C74207468CA
:1018F00065206D616E75616C2E0058595A206361C8
:101900006C6962726174696F6E20636F6D70726F63
:101910006D697365642E2052696768742066726F02
:101920006E742063616C6962726174696F6E20709D
:101930006F696E74206E6F74207265616368616296
:101940006C652E0058595A2063616C69627261742B
:10195000696F6E20636F6D70726F6D697365642E51
:101960002046726F6E742063616C69627261746983
:101970006F6E20706F696E7473206E6F7420726565
:1019800061636861626C652E0058595A2063616C0E
:101990006962726174696F6E206661696C65642E3C
:1019A000204265642063616C6962726174696F6E64
:1019B00020706F696E7420776173206E6F7420667B
:1019C0006F756E642E00506C6561736520706C617C
:1019D000636520737465656C207368656574206F3A
:1019E0006E20686561746265642E00446973746179
:1019F0006E6365206265747765656E20746970201A
:101A00006F6620746865206E6F7A7A6C6520616EEF
:101A10006420746865206265642073757266616312
:101A20006520686173206E6F74206265656E207337
:101A30006574207965742E20506C6561736520662D
:101A40006F6C6C6F7720746865206D616E75616C6A
:101A50002C2063686170746572204669727374200B
:101A600073746570732C2073656374696F6E2046A0
:101A700069727374206C617965722063616C69624C
:101A8000726174696F6E2E00506C61636520612015
:101A90007368656574206F6620706170657220756B
:101AA0006E64657220746865206E6F7A7A6C65204A
:101AB000647572696E67207468652063616C696221
:101AC000726174696F6E206F66206669727374202C
:101AD0003420706F696E74732E20496620746865B7
:101AE000206E6F7A7A6C6520636174636865732019
:101AF0007468652070617065722C20706F776572F4
:101B0000206F666620746865207072696E746572F5
:101B100020696D6D6564696174656C792E00506C27
:101B2000656173652072656D6F7665207374656598
:101B30006C2073686565742066726F6D20686561DE
:101B4000746265642E00497320737465656C20733C
:101B500068656574206F6E20686561746265643FB6
:101B600000206F66203400536561726368696E6798
:101B7000206265642063616C6962726174696F6E72
:101B800020706F696E7400206F662039004D6561AA
:101B9000737572696E67207265666572656E6365DE
:101BA00020686569676874206F662063616C69628C
:101BB000726174696F6E20706F696E7400506C652D
:101BC00061736520636C65616E20746865206E6F5B
:101BD0007A7A6C6520666F722063616C69627261EB
:101BE00074696F6E2E20436C69636B207768656E35
:101BF00020646F6E652E004175746F20686F6D658F
:101C00000078797A63616C5F6D6561737375726575
:101C10005F656E7465720A0078797A63616C5F73D0
:101C2000706972616C382063783D25642063793D6A
:101C30002564207A303D256420647A3D2564207235
:101C400061646975733D25642061643D25640A0003
:101C500078797A63616C5F7365617263685A206E2C
:101C60006F207369676E616C0A20783D256C642073
:101C7000793D256C64207A3D256C640A00204F4E26
:101C80002D5349474E414C20617420783D256420F6
:101C9000793D2564207A3D25642061643D25640AF0
:101CA0000078797A63616C5F7365617263685A204A
:101CB000783D256C6420793D256C64207A3D256C47
:101CC000640A000A00253032780078797A63616C02
:101CD0005F7363616E5F706978656C735F333278D0
:101CE00033322063783D25642063793D2564206D7F
:101CF000696E5F7A3D2564206D61785F7A3D256469
:101D00000A00202532642025640A000A00253032AA
:101D10007800206D696E3D2564206D61783D2564F5
:101D2000206469663D25640A006D61785F633D2526
:101D30003264206D61785F6C3D25640A006D6178C6
:101D40005F633D2564206D61785F723D2564206D81
:101D500061785F6D617463683D25640A0020783D99
:101D6000256420793D2564207A3D25640A00207091
:101D700061747465726E20666F756E642061742084
:101D800025642025640A000000F000F801FC03FE31
:101D900007FE07FE07FE07FC03F801F000000073D2
:101DA000697A656F6628746F74616C293D25640AD1
:101DB0000073697A656F6628626C6F636B5F62752A
:101DC00066666572293D25640A0078797A63616CDC
:101DD0005F6D656173737572655F6C656176650AC9
:101DE00000706F696E743D256420783D256420790C
:101DF0003D2564207A3D25640A0058025802584D5A
:101E0000584DB004F055F055B00478797A63616CA0
:101E10005F66696E645F6265645F696E6475637452
:101E2000696F6E5F73656E736F725F706F696E74EA
:101E30005F787920783D256C6420793D256C64209D
:101E40007A3D256C640A00203C20005741524E49DF
:101E50004E473A2046726F6E7420706F696E742020
:101E60006E6F7420726561636861626C652E2059C3
:101E700020636F6F7264696E6174653A00000000E0
:101E800040410000C04000005C430000C040000032
:101E90005C43000046430000404100004643497453
:101EA00065726174696F6E3A200043616C69627299
:101EB0006174696F6E206661696C65642120436896
:101EC00065636B20746865206178657320616E645A
:101ED0002072756E20616761696E2E002569206829
:101EE0006F757273202569206D696E757465730056
:101EF00054494D454F55543A004D313130004675E7
:101F00006C6C205258204275666665720066736577
:101F10006E736F725F73746F705F616E645F736115
:101F200076655F7072696E740A006673656E736FB2
:101F3000725F726573746F72655F7072696E745FE1
:101F4000616E645F636F6E74696E75650A00444903
:101F50005341424C45440A00454E41424C454400E1
:101F60004653656E736F722025530A0050415439F1
:101F70003132355F696E69743A256868750A0050B8
:101F80004154393132355F696E69743A2568687534
:101F90000A00504154393132355F696E69743A250F
:101FA0006868750A0050415439313235206E6F74BB
:101FB00020726573706F6E64696E672028256429CE
:101FC000210A00446F6E65207072696E74696E67D5
:101FD0002066696C65005072696E74657220737456
:101FE0006F707065642064756520746F206572720F
:101FF0006F72732E2046697820746865206572724E
:102000006F7220616E6420757365204D39393920F7
:10201000746F20726573746172742E202854656D1C
:10202000706572617475726520697320726573657D
:10203000742E205365742069742061667465722063
:1020400072657374617274696E6729004E6F204CFB
:10205000696E65204E756D626572207769746820BF
:10206000636865636B73756D2C204C617374204CD1
:10207000696E653A20004E6F20436865636B737527
:102080006D2077697468206C696E65206E756D626D
:1020900065722C204C617374204C696E653A200087
:1020A000636865636B73756D206D69736D617463CF
:1020B000682C204C617374204C696E653A20004C8A
:1020C000696E65204E756D626572206973206E6F52
:1020D00074204C617374204C696E65204E756D627E
:1020E00065722B312C204C617374204C696E653AFB
:1020F00020006673656E736F725F6175746F6C6FCD
:1021000061645F636865636B5F7374617274202DD3
:10211000206175746F6C6F616420454E41424C457F
:10212000440A006673656E736F725F6175746F6CDD
:102130006F61645F636865636B5F73746F70202D9C
:10214000206175746F6C6F61642044495341424C47
:1021500045440A00545249474745524544005354A8
:102160004F505045442E2000506C656173652075BA
:102170007064617465206669726D7761726520694B
:102180006E20796F7572204D4D55322E2057616942
:1021900074696E6720666F722072657365742E00B5
:1021A0004D4D55204F4B2E20526573756D696E67EE
:1021B0002E2E2E004D4D55204F4B2E2052657375FF
:1021C0006D696E6720706F736974696F6E2E2E2E45
:1021D000004D4D55204F4B2E20526573756D696E25
:1021E000672074656D70657261747572652E2E2E30
:1021F000004669782074686520697373756520618D
:102200006E64207468656E207072657373206275E9
:1022100074746F6E206F6E204D4D5520756E69740D
:102220002E00507265737320746865206B6E6F6248
:1022300020746F20726573756D65206E6F7A7A6C8D
:10224000652074656D70657261747572652E004DE0
:102250004D55206E656564732075736572206174D9
:1022600074656E74696F6E2E00506C6561736520C5
:1022700072656D6F76652066696C616D656E742040
:10228000616E64207468656E20707265737320746B
:102290006865206B6E6F622E00456A656374696EB7
:1022A000672066696C616D656E74004D4D55322016
:1022B0006669726D776172652076657273696F6E9B
:1022C00020696E76616C69642E2052657175697241
:1022D00065642076657273696F6E3A206275696C09
:1022E00064206E756D626572202564206F722068AF
:1022F00069676865722E00452D6178697320656E87
:1023000061626C65640A004D4B33203D3E204D4DAB
:1023100055202746696C616D656E74207365656E26
:10232000206174206578747275646572270A004DA7
:102330004B33203D3E204D4D5520275230270A007B
:10234000452D6178697320656E61626C65640A0071
:102350004D4B33203D3E204D4D55202745256427CC
:102360000A00452D617869732064697361626C6548
:10237000640A004D4B33203D3E204D4D55202755DE
:1023800030270A004D4B33203D3E204D4D55202730
:102390004330270A004D4B33203D3E204D4D552004
:1023A000274C2564270A004D4B33203D3E204D4DE0
:1023B0005520275425642040746F6F6C4368616E0C
:1023C00067653A2564270A00452D617869732064A2
:1023D000697361626C65640A004D4D55203D3E2075
:1023E0004D4B3320276F6B270A004D4D55203D3E46
:1023F000204D4B3320276F6B203A29270A004D4D83
:1024000055203D3E204D4B33202777616974696E1E
:102410006720666F722066696C616D656E7420401E
:10242000204D4B332053656E736F72270A004D3673
:102430003030004D363030204155544F0046534522
:102440004E534F525F5245434F564552002F2F2057
:10245000616374696F6E3A6D3630300A004D4D55C8
:10246000202D20454E41424C4544004D4D5520768F
:10247000657273696F6E2076616C6964004D4D55AD
:10248000203D3E204D4B3320272564270A004D4D2B
:1024900055203D3E204D4B3320272564270A004D13
:1024A0004D55206E6F7420726573706F6E64696E27
:1024B00067202D2044495341424C4544004D4D5521
:1024C0002073746172747320726573706F6E6469C7
:1024D0006E670A004D4D55206E6F742072657370E3
:1024E0006F6E64696E670A002F2F20616374696FD5
:1024F0006E3A6D6D75417474656E74696F6E0A0025
:10250000452D617869732064697361626C65640A42
:10251000000000803F555585410000803F0000C805
:102520004100000040555505420000C03F000048F2
:10253000420000204055558542000070C1ABAAA65C
:1025400042000060C10000A0410000C0C0000020A7
:102550004100002041ABAA3A41000020C15555D5A9
:1025600040000048C2555505424D373031204530B6
:10257000004D373031204531004D37303120453264
:10258000004D373031204533004D37303120453450
:10259000004D373031204534004D37303120453340
:1025A000004D373031204532004D37303120453134
:1025B000004D3730312045300046696C616D656EE5
:1025C00074206E72206F7574206F662072616E6762
:1025D000652100773235783230636C5F63666D0A4F
:1025E00000773235783230636C5F656E7465720ADD
:1025F00000504154393132355F5245535F593D25C2
:102600006868750A00504154393132355F5245537C
:102610005F583D256868750A00062833D036C23EEB
:10262000013F154132423B43F2443B45F2462247CB
:102630003B48F2493B4AF05898590C5A085B0C5CED
:10264000086110679B6E2271077208FF095A0D001E
:102650000EF019045E0820642B6D322FFF256325D0
:1026600033642F2564256300544D4320445249565A
:102670004552204F56455254454D50002563253351
:10268000642F25642563005A25362E326620005AB1
:102690002020202D2D2D20002563253364252500A5
:1026A0002D2D2D00253368686400253353253373A1
:1026B00025250020534400202020005553420020AF
:1026C00025753E25750020462575002046302020C2
:1026D0000025632D2D3A2D2D2020002563253375EF
:1026E000682025632563002563253032753A25303F
:1026F00032752563256300726573756C742076618D
:102700006C75653A2025640A0020693D25326420F5
:10271000636E743D2532642076616C3D2532640A17
:1027200000636C7573746572733A0A0020693D2505
:10273000326420737465703D2532640A00736F72D1
:102740007465642073616D706C65733A0A003A2099
:102750000020202020202020202020202020202099
:102760002020202000203A2000202020202020208F
:102770002020202020202020202020202000202079
:102780002020202020202020202020002573005001
:10279000494E44412048656174696E670054656D17
:1027A000702E2063616C2E202020202020202020ED
:1027B000200043616C6962726174696F6E20646F9E
:1027C0006E650043616C6962726174696E67205A5C
:1027D0000042656420646F6E650042656420486550
:1027E0006174696E670048656174696E6720646F23
:1027F0006E652E0048656174696E67005365747478
:10280000696E67732053746F7265640053746F72DE
:1028100065642073657474696E6773207265747281
:1028200069657665640048617264636F64656420FD
:1028300044656661756C742053657474696E677362
:10284000204C6F6164656400563200000000C8428D
:102850000000C8420000C84300008C430000484309
:1028600000004843000040410000F042E80300003F
:10287000E8030000C80000008813000000409C44EA
:1028800000409C440000000000000000204E0000BA
:102890000000204100002041CDCCCC3E0000204073
:1028A000000000000000000000000000CDCCCC3E85
:1028B0003D0A8141FF08433EB099AB438F42FC4241
:1028C000E65A343F4C62B045000000000040400032
:1028D0000034420000000000000000000000410041
:1028E0000000E03F0000C8420000C8420000404134
:1028F0000000F042C0030000C0030000C800000058
:1029000088130000454550524F4D204572726F723A
:1029100000436F6E74696E75652077697468206115
:102920006E6F7468657220626F7764656E3F002514
:1029300000202020202020002020202020200045D2
:10294000524153494E4720616C6C206461746100B0
:10295000466163746F7279205245534554000000FC
:102960007F430080544300005243000000000000F9
:1029700080C09A99193E00000000000080C09A991A
:10298000193E24F4D43050C38E20C2A24017828B4B
:102990007011127A910D816CD90AA861E108C758AB
:1029A0006607615143061E4B5D05C145A7041A41E8
:1029B0001104093D9803713931034036DB02653358
:1029C0009102D4305402802E1D02632CEE01752A30
:1029D000C501B028A001102781018F2564012B2497
:1029E0004B01E0223401AC211F018D200D01801F1D
:1029F000FC00841EED00971DDF00B81CD200E61B12
:102A0000C600201BBC00641AB200B219A8000A1943
:102A1000A0006A189900D117910040178B00B516D5
:102A2000840031167E00B31579003A157300C7147F
:102A30006F0058146A00EE136600881363002513B4
:102A40005E00C7125B006C12570015125400C111D2
:102A5000510070114F0021114B00D61049008D100C
:102A600047004610440002104200C00F4000800F93
:102A70003E00420F3C00060F3B00CB0E3800930E89
:102A800037005C0E3500270E3400F30D3200C10D07
:102A90003100900D3000600D2E00320D2D00050D1F
:102AA0002C00D90C2B00AE0C2900850C29005C0CE5
:102AB0002700350C27000E0C2600E80B2400C40B61
:102AC0002400A00B23007D0B23005A0B2100390B9F
:102AD0002100180B2000F80A1F00D90A1E00BB0AAB
:102AE0001E009D0A1D00800A1D00630A1C00470A83
:102AF0001B002C0A1B00110A1A00F7091A00DD0935
:102B00001900C4091900AB091900920917007B09C3
:102B10001800630917004C09160036091600200931
:102B200016000A091500F5081500E0081400CC0885
:102B30001400B8081400A4081400900813007D08BD
:102B400012006B08130058081200460812003408DF
:102B50001100230811001208110001081100F007EC
:102B60001000E0071000D0071000C0071000B007E9
:102B70000F00A107100091070E0083070F007407D4
:102B80000F0065070E0057070E0049070E003B07B0
:102B90000D002E070E0020070D0013070D0006077D
:102BA0000D00F9060C00ED060D00E0060C00D40641
:102BB0000C00C8060C00BC060C00B0060C00A406F5
:102BC0000B0099060C008D060B0082060B007706A1
:102BD0000B006C060B0061060A0057060B004C0642
:102BE0000A0042060A0038060A002E060A002406D9
:102BF0000A001A060A001006090007060A00FD0569
:102C00000900F4050900EB050900E2050900D905F2
:102C10000900D0050900C7050900BE050900B50572
:102C20000800AD050800A50509009C0508009405ED
:102C300008008C050800840508007C050800740560
:102C400008006C050700650508005D0507005605CE
:102C500008004E0507004705070040050800380535
:102C60000700310507002A050700230507001C059A
:102C70000600160507000F050700080506000205F7
:102C80000700FB040600F5040700EE040600E80454
:102C90000600E2040700DB040600D5040600CF04AA
:102CA0000600C9040600C3040600BD040600B704FC
:102CB0000600B1040500AC040600A6040600A0044A
:102CC00005009B04060095040500900406008A0494
:102CD000050085040500800406007A0405007504DB
:102CE0000500700405006B0405006604050061041E
:102CF00005005C04050057040500520405004D045E
:102D0000050048040500430405003E0404003A049D
:102D1000050035040500300404002C0405002704D8
:102D20000400230405001E0404001A040400160411
:102D30000500110404000D04040009040500040446
:102D4000040000040400FC030400F8030400F4037E
:102D50000400F0030400EC030400E8030400E403AF
:102D60000400E0030400DC030400D8030400D403DF
:102D70000400D0030400CC030400C8030300C5030F
:102D8000030024F404D9201BC40C5C0E9804C4096D
:102D90005F0265077101F405F900FB04B300480404
:102DA0008700C10369005803550003034500BE02B4
:102DB0003A008402310053022A002902250004024D
:102DC0002000E4011C00C8011900AF0117009801A0
:102DD0001400840113007101100061011000510101
:102DE0000E0043010D0036010B002B010B002001EA
:102DF0000B00150109000C01090003010800FB008C
:102E00000800F3000800EB000700E4000600DE0005
:102E10000600D8000600D2000600CC000500C7005E
:102E20000500C2000500BD000400B9000400B500A3
:102E30000400B1000400AD000400A9000400A500D6
:102E40000300A20003009F0004009B000300980001
:102E500003009500020093000300900003008D0022
:102E600002008B000300880002008600020084003C
:102E70000300810002007F0002007D0002007B0051
:102E80000200790002007700010076000200740061
:102E9000020072000100710002006F0002006D006C
:102EA00001006C0002006A00010069000200670076
:102EB000010066000100650001006400020062007C
:102EC000010061000100600001005F0002005D0080
:102ED00001005C0001005B0001005A000100590084
:102EE0000100580001005700010056000100550084
:102EF0000100540001005300000053000100520083
:102F0000010051000100500001004F0001004E007F
:102F100000004E0001004D0001004C0001004B007C
:102F200000004B0001004A00010049000100480078
:102F30000000480001004700010046000000460074
:102F4000010045000000450001004400010043006D
:102F50000000430001004200000042000100410067
:102F6000000041000100400001003F0000003F0060
:102F700001003E0000003E0001003D0000003D0059
:102F800001003C0000003C0000003C0001003B0050
:102F900000003B0001003A0000003A000100390047
:102FA000000039000100380000003800000038003F
:102FB0000100370000003700010036000000360035
:102FC000000036000100350000003500000035002B
:102FD0000100340000003400000034000100330020
:102FE0000000330000003300010032000000320016
:102FF000000032000100310000003100000031000B
:1030000001003000000030000000300001002F00FF
:1030100000002F0000002F0000002F0001002E00F4
:1030200000002E0000002E0001002D0000002D00E9
:1030300000002D0000002D0001002C0000002C00DD
:1030400000002C0000002C0001002B0000002B00D1
:1030500000002B0000002B0001002A0000002A00C5
:1030600000002A0000002A000100290000002900B9
:1030700000002900000029000000290001002800AC
:1030800000002800000028000000280000002800A0
:103090000100270000002700000027000000270093
:1030A0000000270001002600000026000000260086
:1030B0000000260000002600010025000000250079
:1030C000000025000000250000002500000025006C
:1030D000010024000000240000002400000024005F
:1030E0000000240001002300000023000000230052
:1030F0000000230000002300000023000000230044
:103100000100220000002200000022000000220036
:103110000000220000002200010021000000210028
:10312000000021000000210000002100000021001B
:10313000000021000100200000002000000020000D
:1031400000002000000020000000200000002000FF
:103150000000200001001F0000001F0000001F00F1
:1031600000001F0000001F0000001F0000001F00E3
:1031700001001E0000001E0000001E0000001E00D6
:103180000000473830004D3435004D3435205A00AA
:103190004737360057697A617264207374617465C9
:1031A0003A2025640044697361626C65206661722F
:1031B0006D206D6F6465004661726D206E756D6285
:1031C0006572004D3834004D343400473238205792
:1031D000004739390044697361626C652066617229
:1031E0006D206D6F64653F0043616C69627261744C
:1031F0006500506C65617365206C6F616420504C94
:10320000412066696C616D656E74206669727374C5
:103210002E00497320504C412066696C616D656ECB
:1032200074206C6F616465643F0043616E63656C1C
:103230000046696C616D656E740053656C656374FE
:1032400020504C412066696C616D656E743A005285
:10325000756E6E696E672057697A6172642077694E
:103260006C6C2064656C6574652063757272656E44
:10327000742063616C6962726174696F6E2072653B
:1032800073756C747320616E642073746172742042
:1032900066726F6D2074686520626567696E6E691D
:1032A0006E672E20436F6E74696E75653F005072B5
:1032B0006568656174696E67206E6F7A7A6C652ED9
:1032C00020506C6561736520776169742E00456AD2
:1032D00065637400556E6C6F61640055736520758D
:1032E0006E6C6F616420746F2072656D6F766520FF
:1032F00066696C616D656E74203120696620697441
:103300002070726F747275646573206F7574736961
:103310006465206F66207468652072656172204D57
:103320004D5520747562652E2055736520656A655C
:103330006374206966206974206973206869646415
:10334000656E20696E20747562652E004C6F616435
:10335000696E672066696C616D656E7400506C659E
:1033600061736520696E7365727420504C412066EC
:10337000696C616D656E7420746F2074686520657A
:10338000787472756465722C207468656E20707232
:10339000657373206B6E6F6220746F206C6F616455
:1033A0002069742E00506C6561736520696E7365C9
:1033B000727420504C412066696C616D656E74209A
:1033C000746F207468652066697273742074756206
:1033D00065206F66204D4D552C207468656E2070F9
:1033E0007265737320746865206B6E6F6220746FF2
:1033F000206C6F61642069742E00596F75206361C1
:103400006E20616C7761797320726573756D6520CC
:103410007468652057697A6172642066726F6D20E6
:1034200043616C6962726174696F6E202D3E205732
:10343000697A6172642E00506C65617365206368FF
:1034400065636B206F75722068616E64626F6F6B6D
:1034500020616E6420666978207468652070726FE0
:10346000626C656D2E205468656E20726573756D93
:1034700065207468652057697A61726420627920DA
:103480007265626F6F74696E672074686520707210
:10349000696E7465722E00416C6C20697320646FD4
:1034A0006E652E204861707079207072696E746943
:1034B0006E672100506C6561736520636C65616E99
:1034C000206865617462656420616E64207468655B
:1034D0006E20707265737320746865206B6E6F6206
:1034E0002E00446F20796F752077616E7420746FA1
:1034F00020726570656174206C61737420737465EB
:103500007020746F20726561646A757374206469D9
:103510007374616E6365206265747765656E206E95
:103520006F7A7A6C6520616E64206865617462658B
:10353000643F00492077696C6C2073746172742059
:10354000746F207072696E74206C696E6520616E94
:103550006420796F752077696C6C2067726164757F
:10356000616C6C79206C6F77657220746865206E71
:103570006F7A7A6C6520627920726F746174696EFB
:103580006720746865206B6E6F622C20756E74699D
:103590006C20796F75207265616368206F70746943
:1035A0006D616C206865696768742E204368656387
:1035B0006B20746865207069637475726573206927
:1035C0006E206F75722068616E64626F6F6B206928
:1035D0006E20636861707465722043616C69627209
:1035E0006174696F6E2E004E6F7720492077696C89
:1035F0006C2063616C6962726174652064697374C4
:10360000616E6365206265747765656E20746970AC
:10361000206F6620746865206E6F7A7A6C65206111
:103620006E6420686561746265642073757266619A
:1036300063652E00497320697420504C41206669EF
:103640006C616D656E743F0053656C656374206ECC
:103650006F7A7A6C65207072656865617420746534
:103660006D70657261747572652077686963682032
:103670006D61746368657320796F7572206D617414
:10368000657269616C2E004E6F7720492077696CF6
:103690006C2070726568656174206E6F7A7A6C65F3
:1036A00020666F7220504C412E0049732066696C71
:1036B000616D656E74206C6F616465643F00497371
:1036C0002066696C616D656E742031206C6F616479
:1036D00065643F004E6F7720492077696C6C2070DD
:1036E000726568656174206E6F7A7A6C6520666FAA
:1036F0007220504C412E00492077696C6C20727505
:103700006E207A2063616C6962726174696F6E20E9
:103710006E6F772E004E6F772072656D6F76652025
:103720007468652074657374207072696E742066A5
:10373000726F6D20737465656C2073686565742E97
:1037400000506C656173652072656D6F76652073DE
:1037500068697070696E672068656C706572732047
:1037600066697273742E00492077696C6C207275DB
:103770006E2078797A2063616C6962726174696F16
:103780006E206E6F772E2049742077696C6C2074E0
:10379000616B6520617070726F782E203132206D00
:1037A000696E732E0046697273742C204920776904
:1037B0006C6C2072756E207468652073656C66741D
:1037C00065737420746F20636865636B206D6F731D
:1037D0007420636F6D6D6F6E20617373656D626CC5
:1037E000792070726F626C656D732E0048692C20B1
:1037F0004920616D20796F7572204F726967696E1B
:10380000616C205072757361206933207072696E2B
:103810007465722E20576F756C6420796F75206CFB
:10382000696B65206D6520746F206775696465201C
:10383000796F75207468726F756768207468652089
:1038400073657475702070726F636573733F0045A4
:103850002D636F7272656374005A2D636F727265A7
:10386000637400592D636F727265637400582D6321
:103870006F72726563740053706F6F6C4A6F696E1C
:103880002020205B4E2F415D0053706F6F6C4A6F9C
:10389000696E2020205B6F66665D0053706F6F6CF1
:1038A0004A6F696E202020205B6F6E5D00536F753C
:1038B0006E642020202020205B6C6F75645D0053B7
:1038C0006F756E642020202020205B6D7574655D0F
:1038D00000536F756E64202020205B73696C656EE9
:1038E000745D00536F756E642020202020205B6F74
:1038F0006E63655D00536F756E642020202020206C
:103900005B6C6F75645D00536F72743A20202020E9
:1039100020205B6E6F6E655D00536F72743A2020DD
:103920005B616C7068616265745D00536F72743ABC
:103930002020202020205B74696D655D00534420A9
:103940006361726420205B6E6F726D616C5D005309
:10395000442063617264205B666C73684169725DC8
:103960000052506920706F727420202020205B6FFD
:103970006E5D0052506920706F7274202020205BB1
:103980006F66665D0054656D702E2063616C2E203D
:1039900020205B6F6E5D0054656D702E2063616C3E
:1039A0002E20205B6F66665D004C696E2E20636F73
:1039B0007272656374696F6E0046616E732063682E
:1039C00065636B20205B6F66665D0046616E7320E9
:1039D000636865636B2020205B6F6E5D00462E2060
:1039E0006175746F6C6F6164205B6F66665D004625
:1039F0002E206175746F6C6F616420205B6F6E5D4B
:103A000000462E206175746F6C6F6164205B4E2FD1
:103A1000415D0046696C2E2073656E736F72205B8A
:103A20004E2F415D0044697361626C65207374655B
:103A30007070657273004D6F7665206178697300F0
:103A400054656D70657261747572650054656D7052
:103A50002E2063616C6962726174696F6E005265D9
:103A60007365742058595A2063616C6962722E0024
:103A700053686F772070696E646120737461746538
:103A8000005049442063616C6962726174696F6EB1
:103A900000426564206C6576656C20636F727265A8
:103AA0006374004D65736820426564204C657665DB
:103AB0006C696E670043616C696272617465205A5B
:103AC0000043616C6962726174652058595A0053F1
:103AD000656C6674657374202020202020202020CF
:103AE000004669727374206C617965722063616C41
:103AF0002E0057697A617264004C6F6164206669B8
:103B00006C616D656E742035004C6F616420666970
:103B10006C616D656E742034004C6F616420666961
:103B20006C616D656E742033004C6F616420666952
:103B30006C616D656E742032004C6F616420666943
:103B40006C616D656E742031004C6F616420616C36
:103B50006C004C6F61642066696C616D656E7420E9
:103B600035004C6F61642066696C616D656E742010
:103B700034004C6F61642066696C616D656E742001
:103B800033004C6F61642066696C616D656E7420F2
:103B900032004C6F61642066696C616D656E7420E3
:103BA0003100456A6563742066696C616D656E7489
:103BB000203500456A6563742066696C616D656EC9
:103BC00074203400456A6563742066696C616D65B4
:103BD0006E74203300456A6563742066696C616D9C
:103BE000656E74203200456A6563742066696C6195
:103BF0006D656E74203100506C6561736520707561
:103C00006C6C206F75742066696C616D656E7420D4
:103C1000696D6D6564696174656C7900556E6C6F72
:103C20006164696E672066696C616D656E740057CA
:103C3000697A61726420656E642073746174653A98
:103C40002025640A0043686F6F736520636F6C6F93
:103C5000723A004D3730322043004661726D206E5B
:103C6000756D626572004D363030004D3234004D56
:103C7000323320257300052E2E00526573756D6951
:103C80006E67207072696E7400537570706F727415
:103C9000004661696C2073746174730053746174BD
:103CA00069737469637320200043616C6962726197
:103CB00074696F6E004175746F4C6F616420666942
:103CC0006C616D656E7400556E6C6F616420666921
:103CD0006C616D656E7400456A6563742066696C1D
:103CE000616D656E74004C6F616420746F206E6F3F
:103CF0007A7A6C65004C6F61642066696C616D65F1
:103D00006E74004E6F2053442063617264005072E1
:103D1000696E742066726F6D20534400526573752E
:103D20006D65207072696E740050617573652070E6
:103D300072696E7400507265686561740054756EC6
:103D400065004C6976652061646A757374205A0059
:103D5000496E666F2073637265656E0046696E69B1
:103D60007368696E67206D6F76656D656E7473003C
:103D7000536F756E642020202020205B6C6F75646B
:103D80005D00536F756E642020202020205B6D75D0
:103D900074655D00536F756E64202020205B73692D
:103DA0006C656E745D00536F756E6420202020205A
:103DB000205B6F6E63655D00536F756E642020201D
:103DC0002020205B6C6F75645D0043726173682016
:103DD0006465742E20205B4E2F415D004372617339
:103DE00068206465742E2020205B6F6E5D00437236
:103DF000617368206465742E20205B6F66665D00C9
:103E00004D6F6465202020205B537465616C74687D
:103E10005D004D6F646520202020205B4E6F726D29
:103E2000616C5D0046696C2E2073656E736F722045
:103E3000205B6F6E5D0046696C2E2073656E736F3C
:103E400072205B6F66665D004368616E6765206621
:103E5000696C616D656E7400466C6F7700537065B8
:103E600065640046616E2073706565640042656438
:103E7000004E6F7A7A6C650053657474696E67736F
:103E8000005072696E742061626F727465640059CB
:103E90006573004E6F0053746F70207072696E749A
:103EA0000046696C6520696E636F6D706C65746542
:103EB0002E20436F6E74696E756520616E7977612F
:103EC000793F004D61696E0000002110422063308F
:103ED0008440A550C660E770088129914AA16BB162
:103EE0008CC1ADD1CEE1EFF131121002733252220A
:103EF000B5529442F772D662399318837BB35AA3B2
:103F0000BDD39CC3FFF3DEE36224433420040114D9
:103F1000E664C774A44485546AA54BB52885099501
:103F2000EEE5CFF5ACC58DD55336722611163006A9
:103F3000D776F6669556B4465BB77AA71997388751
:103F4000DFF7FEE79DD7BCC7C448E5588668A77869
:103F50004008611802282338CCC9EDD98EE9AFF9A1
:103F6000488969990AA92BB9F55AD44AB77A966A49
:103F7000711A500A333A122AFDDBDCCBBFFB9EEBF1
:103F8000799B588B3BBB1AABA66C877CE44CC55C19
:103F9000222C033C600C411CAEED8FFDECCDCDDD41
:103FA0002AAD0BBD688D499D977EB66ED55EF44EE9
:103FB000133E322E511E700E9FFFBEEFDDDFFCCF91
:103FC0001BBF3AAF599F788F8891A981CAB1EBA1E5
:103FD0000CD12DC14EF16FE18010A100C230E32061
:103FE0000450254046706760B9839893FBA3DAB309
:103FF0003DC31CD37FE35EF3B1029012F322D232B1
:104000003542145277625672EAB5CBA5A8958985D8
:104010006EF54FE52CD50DC5E234C324A014810400
:104020006674476424540544DBA7FAB79987B897A8
:104030005FE77EF71DC73CD7D326F2369106B01650
:1040400057667676154634564CD96DC90EF92FE968
:10405000C899E9898AB9ABA94458654806782768A0
:10406000C018E1088238A3287DCB5CDB3FEB1EFB48
:10407000F98BD89BBBAB9ABB754A545A376A167AF0
:10408000F10AD01AB32A923A2EFD0FED6CDD4DCD18
:10409000AABD8BADE89DC98D267C076C645C454C40
:1040A000A23C832CE01CC10C1FEF3EFF5DCF7CDFE8
:1040B0009BAFBABFD98FF89F176E367E554E745E90
:1040C000932EB23ED10EF01E7C3C3E5E2B3D3F2F28
:1040D0005B5D3B2C2A225C0022206661696C656472
:1040E0003A204275666665722066756C6C21002206
:1040F00000656E717565696E67202200416D6269A9
:10410000656E7400426564004E6F7A7A6C65004299
:10411000656C742073746174757300436F6F6C64A5
:104120006F776E00566F6C74616765730054656DD0
:104130007065726174757265730042656C7420738A
:104140007461747573004578747275646572206962
:104150006E666F0058595A2063616C2E2064657436
:1041600061696C7300756E6B6E6F776E004D4D55A7
:104170003220636F6E6E65637465640046696C61BE
:104180006D656E7420657874727564696E6720263B
:10419000207769746820636F727265637420636F3F
:1041A0006C6F723F00507265686561742074686559
:1041B000206E6F7A7A6C6521004552524F523A0058
:1041C0004175746F6C6F6164696E672066696C61BC
:1041D0006D656E74206973206163746976652C2047
:1041E0006A75737420707265737320746865206BD0
:1041F0006E6F6220616E6420696E736572742066F2
:10420000696C616D656E742E2E2E00546F74616C36
:10421000207072696E742074696D6500546F7461EA
:104220006C2066696C616D656E74005072696E74A5
:104230002074696D650046696C616D656E742075EA
:10424000736564005269676874004C656674005950
:104250002064697374616E63652066726F6D206D92
:10426000696E0053657665726520736B65770053E0
:104270006C6967687420736B6577004D6561737551
:1042800072656420736B6577005B303B305D207036
:104290006F696E74206F66667365740041646A7539
:1042A0007374696E67205A005265736574005265B5
:1042B00061722073696465205B756D5D0046726F85
:1042C0006E7420736964655B756D5D005269676823
:1042D0007420736964655B756D5D004C6566742060
:1042E00073696465205B756D5D005365742074654A
:1042F0006D70657261747572653A001B5B323B319B
:104300004825533A2020256425631B5B333B314805
:1043100050494E44413A2020202025642563001B4B
:104320005B303B314825533A202020256425631B10
:104330005B313B314825533A202020202020256442
:104340002563001B5B313B31485057523A202020F7
:1043500020202025642E25303164561B5B323B31F2
:10436000484245443A20202020202025642E253034
:10437000316456001B5B303B314825531B5B313B9E
:104380003248582025641B5B323B32485920256453
:1043900000464C4558202D20203234302F35300037
:1043A00050502020202D20203235342F3130300045
:1043B00048495053202D20203232302F31303000E8
:1043C00041425320202D20203235352F313030000E
:1043D00050455420202D20203233302F38350050C6
:1043E0004C4120202D20203231352F3630004142E3
:1043F00053202020202D20203235352F3130300021
:104400006E6F7A7A6C65202D20203235302F300087
:104410006661726D2020202D20203235302F3630FD
:1044200000466C61736841697220495020416464A0
:10443000723A004D4D5532202020202020204E2F52
:104440004100756E6B6E6F776E0025642E25642EAD
:1044500025642D2564002046573A004D4D553220E5
:10446000636F6E6E6563746564004D4D5532202038
:1044700020202020204E2F410025642E25642E254B
:10448000642D2564002046573A002D2D2D2D2D2D0D
:104490002D2D2D2D2D2D00207265706F20556E6BEA
:1044A0006E6F776E0020352E302E342D545A422DEB
:1044B00032333237004669726D776172653A002592
:1044C000642E25642E25642E2564004D373032007D
:1044D0004D373031004578747275646572006D6DCA
:1044E000000059005800580059005A002563252E35
:1044F0003132533A2573252B30362E3366001B5B41
:10450000324A2553203A1B5B313B394825382E323D
:1045100066206D0A2553203A0A25376C6464203AD8
:10452000253268686468203A253032686864206DF6
:10453000001B5B324A25533A1B5B313B364825381A
:104540002E32666D200A2553203A1B5B333B3848D8
:104550002532646820253032646D20253032647342
:104560000025362E32666D6D004E2F41001B5B30EC
:104570003B304825533A0A25530A25533A0A255316
:104580003A001B5B303B3135484E2F41001B5B30FE
:104590003B31354825342E326601001B5B303B3001
:1045A0004825533A0A25530A25533A202025352E0B
:1045B0003266010A25533A202025352E3266010045
:1045C00020423A0020453A00543A00494E54340003
:1045D0007265636F7665725F6D616368696E655F52
:1045E00073746174655F61667465725F706F77651F
:1045F000725F70616E69632C20696E697469616CA9
:1046000020007265636F7665725F6D616368696EC5
:10461000655F73746174655F61667465725F706F06
:104620007765725F70616E69632C20696E69746969
:10463000616C2000473932204500505255534120CB
:1046400075766C6F004734205330004D323620535E
:10465000256C75004D3130362053004D38320047FF
:1046600031204625640047312045322A6465666161
:10467000756C745F72657472616374696F6E2046E5
:10468000343830004731205A002046323030300074
:1046900020590047312058004D383300506F73695E
:1046A00074696F6E20726561642066726F6D20653B
:1046B0006570726F6D3A004D3233202573002E679E
:1046C000636F0046656564726174653A0047312026
:1046D000452D64656661756C745F726574726163A3
:1046E00074696F6E204634383000473120453520DC
:1046F00046313230004D3833004D313930205325AA
:1047000064004D3130392053256400473238205839
:104710002059004731205A32352046383030006267
:104720007573793A2070617573656420666F7220C5
:10473000696E70757400627573793A207061757373
:10474000656420666F722075736572006275737997
:104750003A2070726F63657373696E67002046005C
:104760004731205A0020460047312045004D38335C
:10477000006F6B0A0055564C4F202D20656E64204B
:1047800025640A007374707325640A00776F726C75
:104790006420636F6F7264696E617465733A202878
:1047A000252E33662C20252E33662C20252E3366AD
:1047B000290A00706879736963616C20636F6F7296
:1047C00064696E617465733A2028252E33662C2047
:1047D000252E33662C20252E3366290A0043757258
:1047E00072656E7420706F73205A5F415849533A56
:1047F000252E33660A43757272656E7420706F736E
:1048000020455F415849533A252E33660A004166D8
:104810007465722077616974696E6720666F7220B3
:1048200074656D703A0A43757272656E7420706FAC
:104830007320585F415849533A252E33660A437511
:104840007272656E7420706F7320595F41584953BE
:104850003A252E33660A005265636F766572696E7B
:1048600067207072696E7420202020005265736585
:104870006E640048656174696E6720646973616283
:104880006C6564206279207361666574792074694F
:104890006D65722E004B494C4C45442E20005072E1
:1048A000696E7465722068616C7465642E206B6932
:1048B0006C6C28292063616C6C656421004D31307B
:1048C0003420496E76616C69642065787472756411
:1048D000657220004D31303520496E76616C696417
:1048E00020657874727564657220004D313039200E
:1048F000496E76616C69642065787472756465725E
:1049000020004D32313820496E76616C6964206533
:104910007874727564657220004D32323120496EB0
:1049200076616C69642065787472756465722000C4
:1049300025533A20256C640A25530A002079645FC8
:104940006D696E3D25752079645F6D61783D2575D3
:104950002079645F6176673D25752073685F6176B5
:10496000673D25750A002073745F73756D3D25756D
:104970002079645F73756D3D25752065725F737571
:104980006D3D25752065725F6D61783D25686875A0
:104990000A00004B494C4C3A2025640A00667365B6
:1049A0006E736F725F6F715F6D6561737375726542
:1049B0005F73746F702C20256868752073616D704B
:1049C0006C65730A006673656E736F725F6F715FFB
:1049D0006D656173737572655F73746172740A00DB
:1049E0004D363030004653454E534F525F5245438B
:1049F0004F564552006673656E736F725F757064D3
:104A0000617465202D204D3630300A006673656E66
:104A1000736F725F6572725F636E74203D20300A3F
:104A200000473120453320463230300047312045A1
:104A30002D332046323030004D3730310020573A88
:104A40000020453A00543A005A206C69766520618E
:104A5000646A757374206F7574206F662072616E5E
:104A600067652E2053657474696E6720746F2030FB
:104A70002E20436C69636B20746F20636F6E7469C2
:104A80006E75652E005A206C6976652061646A75C2
:104A90007374206F7574206F662072616E67652E67
:104AA0002053657474696E6720746F203000200095
:104AB0003E003E0020003E003E0054656D70657271
:104AC00061747572652063616C6962726174696F8B
:104AD0006E206661696C65642E20436F6E74696E2A
:104AE00075652077697468207072657373696E6785
:104AF00020746865206B6E6F622E0054656D706562
:104B00007261747572652063616C69627261746947
:104B10006F6E20646F6E652E20436F6E74696E75C4
:104B2000652077697468207072657373696E672099
:104B3000746865206B6E6F622E005A3020284C45D9
:104B400044206F6E2920005A3120284C4544206FA4
:104B500066662900502E492E4E2E442E412E20737B
:104B6000746174650054656D706572617475726509
:104B70002063616C6962726174696F6E206661693D
:104B80006C65640054656D70657261747572652042
:104B900063616C6962726174696F6E20697320660B
:104BA000696E697368656420616E6420616374690D
:104BB00076652E2054656D702E2063616C6962727B
:104BC0006174696F6E2063616E2062652064697331
:104BD00061626C656420696E206D656E7520536539
:104BE0007474696E67732D3E54656D702E20636119
:104BF0006C2E004578747275646572004D6F766531
:104C0000205A004D6F76652059004D6F766520580B
:104C1000001B5B324A43726173682064657465638C
:104C200074696F6E2063616E1B5B313B3048626557
:104C3000207475726E6564206F6E206F6E6C7920C3
:104C4000696E1B5B323B30484E6F726D616C206D3C
:104C50006F6465001B5B324A5741524E494E473ADA
:104C60001B5B313B30484372617368206465746537
:104C70006374696F6E1B5B323B30486469736162B9
:104C80006C656420696E1B5B333B3048537465610F
:104C90006C7468206D6F6465004175746F6C6F6132
:104CA00064696E672066696C616D656E74206176FB
:104CB00061696C61626C65206F6E6C7920776865E4
:104CC0006E2066696C616D656E742073656E736FBE
:104CD00072206973207475726E6564206F6E2E2E5B
:104CE0002E004552524F523A2046696C616D656EF6
:104CF000742073656E736F72206973206E6F7420F9
:104D0000726573706F6E64696E672C20706C65617C
:104D1000736520636865636B20636F6E6E65637493
:104D2000696F6E2E0043757272656E7400557365FF
:104D30006420647572696E67207072696E740050C9
:104D400049442063616C2E2066696E6973686564EE
:104D5000005049442063616C2E2020202020202018
:104D60002020202000506C65617365207761697494
:104D7000004D313137204669727374206C6179655A
:104D8000722063616C2E005072696E7420706175C0
:104D900073656400496E76616C69642050494420F3
:104DA00063616C2E20726573756C74732E204E6F68
:104DB000742073746F72656420746F20454550527F
:104DC0004F4D2E004D353030004731205A313520BF
:104DD00046313530300047393100473120583530C1
:104DE00020593139302045302046373030300047A7
:104DF0003930004D373032004D3730322043004DCE
:104E00003730322055004D373032004D37303220A8
:104E100043004731205A3135204631353030004784
:104E2000393100473120583530205931393020454B
:104E300030204637303030004D38330047393000AD
:104E40004D3834004D313034205330004D3834006B
:104E50004D3730322043004731205831302059310E
:104E60003830204634303030004731205A3130203D
:104E700046313330302E303030004D313430205315
:104E800030004D31303420533000473120452D3033
:104E90002E30373530302046323130302E30303001
:104EA0003030004D313037004731205835302059EF
:104EB00035352045332E36323737330047312058C9
:104EC000323030205935352045302E34393338369C
:104ED0000047312058323030205937352045332EA5
:104EE000363237373300473120583530205937357F
:104EF0002045302E3439333836004731205835308C
:104F0000205939352045332E363237373300473173
:104F10002058323030205939352045302E3439333D
:104F20003836004731205832303020593131352061
:104F300045332E363237373300473120583530204D
:104F4000593131352045302E343933383600473128
:104F50002058353020593133352045332E363237FD
:104F60003733004731205832303020593133352023
:104F700045302E3636313734004731205832303004
:104F800020593135352045322E36323737330047F8
:104F900031205831303020593135352045320047E5
:104FA000312058373520593135352045322E3500DE
:104FB0004731204631303830004731205A302E31C9
:104FC00035302046373230302E30303000473120F7
:104FD000583530205931353500473120463430308E
:104FE00030004D32303420533130303000473120E2
:104FF0005A352046373230302E303030004731209D
:10500000452D312E35303030302046323130302E83
:105010003030303030004D383300473930004732BF
:1050200031004739322045302E3000473120583189
:1050300030302E30204531322E3520463130303060
:105040002E30004731205836302E302045392E3052
:105050002046313030302E300047312058352E3048
:105060002045342E302046313030302E300047314C
:10507000205A302E32302046313030302E3000472A
:1050800031205835352E30204532352046313430E8
:10509000302E3000473120592D322E30204631300D
:1050A00030302E3000473120583234302E302045F9
:1050B00032352E30202046323230302E3000473903
:1050C000322045302E30004731205A302E332046D2
:1050D000313030302E30004731205835352E3020D9
:1050E00045382E302046323030302E3000473120C7
:1050F00058352E30204533322E302046313830306E
:105100002E30004731205835352E30204533322E91
:10511000302046313037332E30004731205A302E80
:10512000342046313030302E3000473120592D3375
:105130002E302046313030302E30004D383300478D
:1051400039322045302E3000473238004D31303969
:105150002053323135004D31393020533630004D37
:1051600031343020533630004D3130342053323119
:1051700035004D31303700000E1315110E000000C0
:1051800004120912040000001C1F11111F0000006E
:1051900006191803130C00040E1F041C0000000461
:1051A0000A0A0A0A11110E001F1511151F0000002E
:1051B0000103161C0800000000110A04110A040C67
:1051C00012120C000000002563252D313853256391
:1051D000002563252E3135533A2573253364002588
:1051E00063252E3132533A25732500457872656D5B
:1051F00065207370616E206F6620746865205A2088
:1052000076616C756573210000004041000000402C
:105210000000E4420000004000005743000000404E
:10522000000057430000C4420000E4420000C442B2
:10523000000040410000C4420000404100004243E1
:105240000000E44200004243000057430000424394
:10525000205B6F66665D00426564206C6576656CF8
:10526000696E67206661696C65642E2053656E7394
:105270006F72206469646E74207472696767657206
:105280002E20446562726973206F6E206E6F7A7A89
:105290006C653F2057616974696E6720666F722084
:1052A00072657365742E0043616E6E6F7420656E57
:1052B000746572207375626469723A2000534420E9
:1052C00063617264206F6B006F70656E526F6F74F4
:1052D000206661696C656400766F6C756D652E691A
:1052E0006E6974206661696C656400534420696E60
:1052F0006974206661696C0057726974696E672011
:10530000746F2066696C653A200046696C6520738D
:10531000656C6563746564002053697A653A2000A2
:1053200046696C65206F70656E65643A20001F1FCA
:105330001F1F1F1F1F1F2E002E004E6F772066722B
:105340006573682066696C653A20004E6F7720644B
:105350006F696E672066696C653A20002220706F65
:1053600073002220706172656E743A2200535542B8
:10537000524F5554494E452043414C4C2074617264
:105380006765743A2200747279696E6720746F20C1
:1053900063616C6C207375622D67636F6465206652
:1053A000696C6573207769746820746F6F206D6114
:1053B0006E79206C6576656C732E204D4158206C9B
:1053C0006576656C2069733A00536F7274696E6715
:1053D0002066696C657300536F6D652066696C6546
:1053E000732077696C6C206E6F7420626520736F18
:1053F000727465642E204D61782E204E6F2E206FC2
:10540000662066696C657320696E203120666F6C5A
:1054100064657220666F7220736F7274696E6720A4
:105420006973203130302E001000C90210012C01A8
:105430004001220170011801B0010E01F0010401C8
:105440005002FA00B002F0003003E600D003DC00A6
:105450009004D2007005C800A006BE000008B40089
:10546000B009AA00D00BA000600E960060118C005D
:105470000015820020197800C01D6E00A022640073
:10548000B0275A00902C500000314600E0343C0018
:1054900010383200903A2800603C1E00A03D1400F5
:1054A000803E0A00203F000070012C01900127017E
:1054B000B0012201C0011D01F00118011002130109
:1054C00030020E016002090190020401C002FF00D7
:1054D0000003FA004003F5008003F000D003EB0066
:1054E0002004E6007004E100E004DC004005D70081
:1054F000C005D2004006CD00D006C8008007C3001A
:105500003008BE00F008B900C009B400B00AAF000E
:10551000B00BAA00D00CA500000EA000500F9B00FD
:10552000C01096005012910000148C00C015870026
:10553000B0178200B0197D00D01B7800001E7300E8
:1055400040206E0090226900F024640040275F0034
:1055500090295A00E02B5500102E500020304B00AF
:1055600010324600E033410090353C0010373700E0
:1055700070383200A0392D00B03A2800A03B23003B
:10558000603C1E00103D1900903D1400103E0F00BD
:10559000703E0A00C03E0500003F000090137D00F1
:1055A000B0157800F0177300601A6E00F01C6900E7
:1055B000A01F640050225F0020255A00E0275500FC
:1055C000902A5000202D4B00A02F4600F0314100C2
:1055D00010343C00F0353700A037320020392D0060
:1055E000603A2800703B2300603C1E00203D1900FB
:1055F000C03D1400403E0F00A03E0A00F03E0500F2
:10560000403F0000703FFBFF903FF6FFB03FF1FFCF
:10561000C03FECFFD03FE7FFE03FE2FFF03FDDFFA0
:10562000F03FD8FF20484F54454E4420544845523F
:105630004D414C2052554E4157415900204845415B
:105640005442454420544845524D414C2052554EF9
:105650004157415900544845524D414C2052554EF6
:10566000415741590042454420544845524D414C10
:105670002052554E415741590020544845524D4102
:105680004C2052554E4157415920282050524548F0
:1056900045415420484F54454E4429002054484524
:1056A000524D414C2052554E4157415920282050CF
:1056B00052454845415420484541544245442900FB
:1056C00050524548454154204552524F52004245A0
:1056D000442050524548454154204552524F5200B3
:1056E0004572723A204D415854454D50003A20457C
:1056F0007874727564657220737769746368656421
:10570000206F66662E204D415854454D50207472CE
:10571000696767657265642021004572723A204DA1
:10572000415854454D50204245440054656D7065C4
:105730007261747572652068656174656420626564
:1057400064207377697463686564206F66662E20D1
:105750004D415854454D50207472696767657265B4
:10576000642021004572723A204D494E54454D50F7
:10577000204245440054656D7065726174757265B0
:10578000206865617465642062656420737769745C
:1057900063686564206F66662E204D494E54454D02
:1057A00050207472696767657265642021004572D4
:1057B000723A204D494E54454D50003A2045787478
:1057C0007275646572207377697463686564206FAD
:1057D00066662E204D494E54454D502074726967BF
:1057E0006765726564202100746D63323133305F08
:1057F000686F6D655F656E74657228617865735F4B
:105800006D61736B3D307825303278290A00746DF4
:1058100063323133305F686F6D655F65786974201E
:10582000746D63323133305F73675F686F6D696EBB
:10583000675F617865735F6D61736B3D30782530AC
:1058400032780A0046696C616D656E742073656E0E
:10585000736F7200537761707065640046726F6E8B
:10586000742F6C6566742066616E7300417869738D
:105870000041786973206C656E677468004C6F6FC7
:1058800073652070756C6C657900456E6473746F18
:1058900070206E6F742068697400456E6473746F55
:1058A00070004D6F746F7200456E6473746F707327
:1058B00000576972696E67206572726F7200426587
:1058C00064202F20486561746572004E6F742063F8
:1058D0006F6E6E6563746564004865617465722FF0
:1058E000546865726D6973746F7200506C65617392
:1058F0006520636865636B203A0053656C66746568
:105900007374206572726F7220210046696C616D3C
:10591000656E742073656E736F723A005072696EB3
:10592000742066616E3A0045787472756465722001
:1059300066616E3A0053656C6674657374206661C7
:10594000696C6564202000416C6C20636F72726525
:10595000637420202020202000436865636B696EFB
:10596000672073656E736F72732000436865636BA5
:10597000696E6720626564202020202000436865EE
:10598000636B696E67205A20617869732020004339
:105990006865636B696E67205920617869732020A0
:1059A00000436865636B696E67205820617869738E
:1059B000202000436865636B696E6720686F7465BB
:1059C0006E64202000436865636B696E6720656EB6
:1059D0006473746F7073004572726F72202D207340
:1059E0007461746963206D656D6F7279206861738D
:1059F000206265656E206F76657277726974746572
:105A00006E00436172642072656D6F766564004359
:105A100061726420696E736572746564002D2D2D4A
:105A20002D2D2D2D2D2D2D2D2D2D2D2D2D2D2D2DA6
:105A30002D0043616C6962726174696E6720686FE2
:105A40006D65000000000000110A045052555341DA
:105A500033444657002079303D25640A00207830D1
:105A60003D25640A004F4B0A004552524F522061B7
:105A7000643D25640A002020207A303D25640A0018
:105A8000207A303D25640A002079303D25640A00E3
:105A90002078303D25640A0078797A63616C5F660E
:105AA000696E645F706F696E745F63656E74657252
:105AB000320A0020746F6F206C6F6E6720657874F7
:105AC000727573696F6E2070726576656E74656449
:105AD0000020636F6C6420657874727573696F6EF3
